{
  "_format": "hh-sol-artifact-1",
  "contractName": "LotteryContract",
  "sourceName": "contracts/LotteryContract.sol",
  "abi": [
    {
      "inputs": [],
      "stateMutability": "nonpayable",
      "type": "constructor"
    },
    {
      "anonymous": false,
      "inputs": [
        {
          "indexed": false,
          "internalType": "address",
          "name": "",
          "type": "address"
        }
      ],
      "name": "WinnerSelected",
      "type": "event"
    },
    {
      "inputs": [
        {
          "internalType": "address",
          "name": "_address",
          "type": "address"
        }
      ],
      "name": "getPlayerInfo",
      "outputs": [
        {
          "internalType": "uint256",
          "name": "",
          "type": "uint256"
        }
      ],
      "stateMutability": "view",
      "type": "function"
    },
    {
      "inputs": [],
      "name": "getPricePool",
      "outputs": [
        {
          "internalType": "uint256",
          "name": "",
          "type": "uint256"
        }
      ],
      "stateMutability": "view",
      "type": "function"
    },
    {
      "inputs": [
        {
          "internalType": "uint256",
          "name": "max",
          "type": "uint256"
        }
      ],
      "name": "getRandomNumber",
      "outputs": [
        {
          "internalType": "uint256",
          "name": "",
          "type": "uint256"
        }
      ],
      "stateMutability": "nonpayable",
      "type": "function"
    },
    {
      "inputs": [],
      "name": "getWinner",
      "outputs": [],
      "stateMutability": "nonpayable",
      "type": "function"
    },
    {
      "inputs": [
        {
          "internalType": "uint256",
          "name": "",
          "type": "uint256"
        }
      ],
      "name": "players",
      "outputs": [
        {
          "internalType": "address",
          "name": "",
          "type": "address"
        }
      ],
      "stateMutability": "view",
      "type": "function"
    },
    {
      "stateMutability": "payable",
      "type": "receive"
    }
  ],
  "bytecode": "0x60a060405234801561001057600080fd5b503373ffffffffffffffffffffffffffffffffffffffff1660808173ffffffffffffffffffffffffffffffffffffffff1681525050608051610fa461006060003960006103d20152610fa46000f3fe60806040526004361061004e5760003560e01c80631fec1cf71461020557806359328401146102305780638e7ea5b21461026d578063b37217a414610284578063f71d96cb146102c157610200565b3661020057662386f26fc10000341161009c576040517f08c379a000000000000000000000000000000000000000000000000000000000815260040161009390610933565b60405180910390fd5b600260003373ffffffffffffffffffffffffffffffffffffffff1673ffffffffffffffffffffffffffffffffffffffff16815260200190815260200160002060009054906101000a900460ff16610151576003339080600181540180825580915050600190039060005260206000200160009091909190916101000a81548173ffffffffffffffffffffffffffffffffffffffff021916908373ffffffffffffffffffffffffffffffffffffffff1602179055505b6001600260003373ffffffffffffffffffffffffffffffffffffffff1673ffffffffffffffffffffffffffffffffffffffff16815260200190815260200160002060006101000a81548160ff02191690831515021790555034600160003373ffffffffffffffffffffffffffffffffffffffff1673ffffffffffffffffffffffffffffffffffffffff16815260200190815260200160002060008282546101f8919061098c565b925050819055005b600080fd5b34801561021157600080fd5b5061021a6102fe565b60405161022791906109cf565b60405180910390f35b34801561023c57600080fd5b5061025760048036038101906102529190610a4d565b610306565b60405161026491906109cf565b60405180910390f35b34801561027957600080fd5b506102826103d0565b005b34801561029057600080fd5b506102ab60048036038101906102a69190610aa6565b6107d6565b6040516102b891906109cf565b60405180910390f35b3480156102cd57600080fd5b506102e860048036038101906102e39190610aa6565b610833565b6040516102f59190610ae2565b60405180910390f35b600047905090565b600080600160008473ffffffffffffffffffffffffffffffffffffffff1673ffffffffffffffffffffffffffffffffffffffff1681526020019081526020016000205403610389576040517f08c379a000000000000000000000000000000000000000000000000000000000815260040161038090610b6f565b60405180910390fd5b600160008373ffffffffffffffffffffffffffffffffffffffff1673ffffffffffffffffffffffffffffffffffffffff168152602001908152602001600020549050919050565b7f000000000000000000000000000000000000000000000000000000000000000073ffffffffffffffffffffffffffffffffffffffff163373ffffffffffffffffffffffffffffffffffffffff161461045e576040517f08c379a000000000000000000000000000000000000000000000000000000000815260040161045590610c01565b60405180910390fd5b6001600380549050116104a6576040517f08c379a000000000000000000000000000000000000000000000000000000000815260040161049d90610c93565b60405180910390fd5b60013073ffffffffffffffffffffffffffffffffffffffff16631fec1cf76040518163ffffffff1660e01b8152600401602060405180830381865afa1580156104f3573d6000803e3d6000fd5b505050506040513d601f19601f820116820180604052508101906105179190610cc8565b11610557576040517f08c379a000000000000000000000000000000000000000000000000000000000815260040161054e90610d41565b60405180910390fd5b600060036105696003805490506107d6565b8154811061057a57610579610d61565b5b9060005260206000200160009054906101000a900473ffffffffffffffffffffffffffffffffffffffff1690506000808273ffffffffffffffffffffffffffffffffffffffff16476040516105ce90610dc1565b60006040518083038185875af1925050503d806000811461060b576040519150601f19603f3d011682016040523d82523d6000602084013e610610565b606091505b509150915081610655576040517f08c379a000000000000000000000000000000000000000000000000000000000815260040161064c90610e48565b60405180910390fd5b81156107d15760005b60038054905081101561078657600260006003838154811061068357610682610d61565b5b9060005260206000200160009054906101000a900473ffffffffffffffffffffffffffffffffffffffff1673ffffffffffffffffffffffffffffffffffffffff1673ffffffffffffffffffffffffffffffffffffffff16815260200190815260200160002060006101000a81549060ff021916905560016000600383815481106107105761070f610d61565b5b9060005260206000200160009054906101000a900473ffffffffffffffffffffffffffffffffffffffff1673ffffffffffffffffffffffffffffffffffffffff1673ffffffffffffffffffffffffffffffffffffffff16815260200190815260200160002060009055808060010191505061065e565b5060008055600360006107999190610872565b7f1d4c260f1824cd028e6c9e6e31c3a0b94f2513e7a641113ec759d382f9bdd5a1836040516107c89190610ae2565b60405180910390a15b505050565b600060016000808282546107ea919061098c565b9250508190555081423360005460405160200161080993929190610ed1565b6040516020818303038152906040528051906020012060001c61082c9190610f3d565b9050919050565b6003818154811061084357600080fd5b906000526020600020016000915054906101000a900473ffffffffffffffffffffffffffffffffffffffff1681565b50805460008255906000526020600020908101906108909190610893565b50565b5b808211156108ac576000816000905550600101610894565b5090565b600082825260208201905092915050565b7f4d696e696d756d206c6f7474657279207469636b657420636f73743a20302e3060008201527f3120455448000000000000000000000000000000000000000000000000000000602082015250565b600061091d6025836108b0565b9150610928826108c1565b604082019050919050565b6000602082019050818103600083015261094c81610910565b9050919050565b6000819050919050565b7f4e487b7100000000000000000000000000000000000000000000000000000000600052601160045260246000fd5b600061099782610953565b91506109a283610953565b92508282019050808211156109ba576109b961095d565b5b92915050565b6109c981610953565b82525050565b60006020820190506109e460008301846109c0565b92915050565b600080fd5b600073ffffffffffffffffffffffffffffffffffffffff82169050919050565b6000610a1a826109ef565b9050919050565b610a2a81610a0f565b8114610a3557600080fd5b50565b600081359050610a4781610a21565b92915050565b600060208284031215610a6357610a626109ea565b5b6000610a7184828501610a38565b91505092915050565b610a8381610953565b8114610a8e57600080fd5b50565b600081359050610aa081610a7a565b92915050565b600060208284031215610abc57610abb6109ea565b5b6000610aca84828501610a91565b91505092915050565b610adc81610a0f565b82525050565b6000602082019050610af76000830184610ad3565b92915050565b7f54686973206164647265737320686173206e6f74206a6f696e6564207468652060008201527f6c6f747465727900000000000000000000000000000000000000000000000000602082015250565b6000610b596027836108b0565b9150610b6482610afd565b604082019050919050565b60006020820190508181036000830152610b8881610b4c565b9050919050565b7f4f6e6c7920746865206d616e616765722063616e2073746f7020746865206c6f60008201527f7474657279000000000000000000000000000000000000000000000000000000602082015250565b6000610beb6025836108b0565b9150610bf682610b8f565b604082019050919050565b60006020820190508181036000830152610c1a81610bde565b9050919050565b7f546865206c6f7474657279206e65656473206174206c65617374203220706c6160008201527f7965727300000000000000000000000000000000000000000000000000000000602082015250565b6000610c7d6024836108b0565b9150610c8882610c21565b604082019050919050565b60006020820190508181036000830152610cac81610c70565b9050919050565b600081519050610cc281610a7a565b92915050565b600060208284031215610cde57610cdd6109ea565b5b6000610cec84828501610cb3565b91505092915050565b7f54686520707269636520706f6f6c20697320656d707479000000000000000000600082015250565b6000610d2b6017836108b0565b9150610d3682610cf5565b602082019050919050565b60006020820190508181036000830152610d5a81610d1e565b9050919050565b7f4e487b7100000000000000000000000000000000000000000000000000000000600052603260045260246000fd5b600081905092915050565b50565b6000610dab600083610d90565b9150610db682610d9b565b600082019050919050565b6000610dcc82610d9e565b9150819050919050565b7f4661696c656420746f2073656e6420457468657220746f207468652057696e6e60008201527f6572000000000000000000000000000000000000000000000000000000000000602082015250565b6000610e326022836108b0565b9150610e3d82610dd6565b604082019050919050565b60006020820190508181036000830152610e6181610e25565b9050919050565b6000819050919050565b610e83610e7e82610953565b610e68565b82525050565b60008160601b9050919050565b6000610ea182610e89565b9050919050565b6000610eb382610e96565b9050919050565b610ecb610ec682610a0f565b610ea8565b82525050565b6000610edd8286610e72565b602082019150610eed8285610eba565b601482019150610efd8284610e72565b602082019150819050949350505050565b7f4e487b7100000000000000000000000000000000000000000000000000000000600052601260045260246000fd5b6000610f4882610953565b9150610f5383610953565b925082610f6357610f62610f0e565b5b82820690509291505056fea264697066735822122005a6cc90a2953be8515df4e7f5fe60900173d0f1042bc7dffa6607620dfc3cc964736f6c63430008180033",
  "linkReferences": {},
  "deployedLinkReferences": {}
}