{
  "_format": "hh-sol-artifact-1",
  "contractName": "QuizFactory",
  "sourceName": "contracts/QuizFactory.sol",
  "abi": [
    {
      "anonymous": false,
      "inputs": [
        {
          "indexed": true,
          "internalType": "contract Quiz",
          "name": "",
          "type": "address"
        }
      ],
      "name": "QuizCreated",
      "type": "event"
    },
    {
      "inputs": [
        {
          "internalType": "string",
          "name": "_question",
          "type": "string"
        },
        {
          "internalType": "string",
          "name": "_answer",
          "type": "string"
        },
        {
          "internalType": "string[]",
          "name": "_answers",
          "type": "string[]"
        },
        {
          "internalType": "string",
          "name": "_salt",
          "type": "string"
        }
      ],
      "name": "createQuiz",
      "outputs": [],
      "stateMutability": "payable",
      "type": "function"
    },
    {
      "inputs": [],
      "name": "getAllQuizes",
      "outputs": [
        {
          "internalType": "contract Quiz[]",
          "name": "",
          "type": "address[]"
        }
      ],
      "stateMutability": "view",
      "type": "function"
    }
  ],
  "bytecode": "0x608060405234801561001057600080fd5b506120c0806100206000396000f3fe6080604052600436106200002b5760003560e01c80625bff801462000030578063c0adff7d1462000050575b600080fd5b6200004e600480360381019062000048919062000482565b62000080565b005b3480156200005d57600080fd5b506200006862000172565b604051620000779190620006b8565b60405180910390f35b60003485858585604051620000959062000202565b620000a4949392919062000887565b6040518091039082f0905080158015620000c2573d6000803e3d6000fd5b5090506000819080600181540180825580915050600190039060005260206000200160009091909190916101000a81548173ffffffffffffffffffffffffffffffffffffffff021916908373ffffffffffffffffffffffffffffffffffffffff1602179055508073ffffffffffffffffffffffffffffffffffffffff167f0265693c8d95ffd63866cae4d18980d296337fa815a89b42926fc64fda65729c60405160405180910390a25050505050565b60606000805480602002602001604051908101604052809291908181526020018280548015620001f857602002820191906000526020600020905b8160009054906101000a900473ffffffffffffffffffffffffffffffffffffffff1673ffffffffffffffffffffffffffffffffffffffff1681526020019060010190808311620001ad575b5050505050905090565b61179a80620008f183390190565b6000604051905090565b600080fd5b600080fd5b600080fd5b600080fd5b6000601f19601f8301169050919050565b7f4e487b7100000000000000000000000000000000000000000000000000000000600052604160045260246000fd5b62000279826200022e565b810181811067ffffffffffffffff821117156200029b576200029a6200023f565b5b80604052505050565b6000620002b062000210565b9050620002be82826200026e565b919050565b600067ffffffffffffffff821115620002e157620002e06200023f565b5b620002ec826200022e565b9050602081019050919050565b82818337600083830152505050565b60006200031f6200031984620002c3565b620002a4565b9050828152602081018484840111156200033e576200033d62000229565b5b6200034b848285620002f9565b509392505050565b600082601f8301126200036b576200036a62000224565b5b81356200037d84826020860162000308565b91505092915050565b600067ffffffffffffffff821115620003a457620003a36200023f565b5b602082029050602081019050919050565b600080fd5b6000620003d1620003cb8462000386565b620002a4565b90508083825260208201905060208402830185811115620003f757620003f6620003b5565b5b835b818110156200044557803567ffffffffffffffff81111562000420576200041f62000224565b5b8086016200042f898262000353565b85526020850194505050602081019050620003f9565b5050509392505050565b600082601f83011262000467576200046662000224565b5b813562000479848260208601620003ba565b91505092915050565b600080600080608085870312156200049f576200049e6200021a565b5b600085013567ffffffffffffffff811115620004c057620004bf6200021f565b5b620004ce8782880162000353565b945050602085013567ffffffffffffffff811115620004f257620004f16200021f565b5b620005008782880162000353565b935050604085013567ffffffffffffffff8111156200052457620005236200021f565b5b62000532878288016200044f565b925050606085013567ffffffffffffffff8111156200055657620005556200021f565b5b620005648782880162000353565b91505092959194509250565b600081519050919050565b600082825260208201905092915050565b6000819050602082019050919050565b600073ffffffffffffffffffffffffffffffffffffffff82169050919050565b6000819050919050565b6000620005e7620005e1620005db846200059c565b620005bc565b6200059c565b9050919050565b6000620005fb82620005c6565b9050919050565b60006200060f82620005ee565b9050919050565b620006218162000602565b82525050565b600062000635838362000616565b60208301905092915050565b6000602082019050919050565b60006200065b8262000570565b6200066781856200057b565b935062000674836200058c565b8060005b83811015620006ab5781516200068f888262000627565b97506200069c8362000641565b92505060018101905062000678565b5085935050505092915050565b60006020820190508181036000830152620006d481846200064e565b905092915050565b600081519050919050565b600082825260208201905092915050565b60005b8381101562000718578082015181840152602081019050620006fb565b60008484015250505050565b60006200073182620006dc565b6200073d8185620006e7565b93506200074f818560208601620006f8565b6200075a816200022e565b840191505092915050565b600081519050919050565b600082825260208201905092915050565b6000819050602082019050919050565b600082825260208201905092915050565b6000620007af82620006dc565b620007bb818562000791565b9350620007cd818560208601620006f8565b620007d8816200022e565b840191505092915050565b6000620007f18383620007a2565b905092915050565b6000602082019050919050565b6000620008138262000765565b6200081f818562000770565b935083602082028501620008338562000781565b8060005b85811015620008755784840389528151620008538582620007e3565b94506200086083620007f9565b925060208a0199505060018101905062000837565b50829750879550505050505092915050565b60006080820190508181036000830152620008a3818762000724565b90508181036020830152620008b9818662000724565b90508181036040830152620008cf818562000806565b90508181036060830152620008e5818462000724565b90509594505050505056fe60806040526040516200179a3803806200179a833981810160405281019062000029919062000485565b662386f26fc10000341162000075576040517f08c379a00000000000000000000000000000000000000000000000000000000081526004016200006c90620005fa565b60405180910390fd5b836000908162000086919062000867565b50620000998382620000d460201b60201c565b6001819055508160029080519060200190620000b792919062000109565b508060039081620000c9919062000867565b5050505050620009b8565b60008183604051602001620000eb92919062000990565b60405160208183030381529060405280519060200120905092915050565b82805482825590600052602060002090810192821562000156579160200282015b828111156200015557825182908162000144919062000867565b50916020019190600101906200012a565b5b50905062000165919062000169565b5090565b5b808211156200018d576000818162000183919062000191565b506001016200016a565b5090565b5080546200019f9062000656565b6000825580601f10620001b35750620001d4565b601f016020900490600052602060002090810190620001d39190620001d7565b5b50565b5b80821115620001f2576000816000905550600101620001d8565b5090565b6000604051905090565b600080fd5b600080fd5b600080fd5b600080fd5b6000601f19601f8301169050919050565b7f4e487b7100000000000000000000000000000000000000000000000000000000600052604160045260246000fd5b6200025f8262000214565b810181811067ffffffffffffffff8211171562000281576200028062000225565b5b80604052505050565b600062000296620001f6565b9050620002a4828262000254565b919050565b600067ffffffffffffffff821115620002c757620002c662000225565b5b620002d28262000214565b9050602081019050919050565b60005b83811015620002ff578082015181840152602081019050620002e2565b60008484015250505050565b6000620003226200031c84620002a9565b6200028a565b9050828152602081018484840111156200034157620003406200020f565b5b6200034e848285620002df565b509392505050565b600082601f8301126200036e576200036d6200020a565b5b8151620003808482602086016200030b565b91505092915050565b600067ffffffffffffffff821115620003a757620003a662000225565b5b602082029050602081019050919050565b600080fd5b6000620003d4620003ce8462000389565b6200028a565b90508083825260208201905060208402830185811115620003fa57620003f9620003b8565b5b835b818110156200044857805167ffffffffffffffff8111156200042357620004226200020a565b5b80860162000432898262000356565b85526020850194505050602081019050620003fc565b5050509392505050565b600082601f8301126200046a57620004696200020a565b5b81516200047c848260208601620003bd565b91505092915050565b60008060008060808587031215620004a257620004a162000200565b5b600085015167ffffffffffffffff811115620004c357620004c262000205565b5b620004d18782880162000356565b945050602085015167ffffffffffffffff811115620004f557620004f462000205565b5b620005038782880162000356565b935050604085015167ffffffffffffffff81111562000527576200052662000205565b5b620005358782880162000452565b925050606085015167ffffffffffffffff81111562000559576200055862000205565b5b620005678782880162000356565b91505092959194509250565b600082825260208201905092915050565b7f546865204574682073656e74206d757374206265206174206c6561737420302e60008201527f3031000000000000000000000000000000000000000000000000000000000000602082015250565b6000620005e260228362000573565b9150620005ef8262000584565b604082019050919050565b600060208201905081810360008301526200061581620005d3565b9050919050565b600081519050919050565b7f4e487b7100000000000000000000000000000000000000000000000000000000600052602260045260246000fd5b600060028204905060018216806200066f57607f821691505b60208210810362000685576200068462000627565b5b50919050565b60008190508160005260206000209050919050565b60006020601f8301049050919050565b600082821b905092915050565b600060088302620006ef7fffffffffffffffffffffffffffffffffffffffffffffffffffffffffffffffff82620006b0565b620006fb8683620006b0565b95508019841693508086168417925050509392505050565b6000819050919050565b6000819050919050565b600062000748620007426200073c8462000713565b6200071d565b62000713565b9050919050565b6000819050919050565b620007648362000727565b6200077c62000773826200074f565b848454620006bd565b825550505050565b600090565b6200079362000784565b620007a081848462000759565b505050565b5b81811015620007c857620007bc60008262000789565b600181019050620007a6565b5050565b601f8211156200081757620007e1816200068b565b620007ec84620006a0565b81016020851015620007fc578190505b620008146200080b85620006a0565b830182620007a5565b50505b505050565b600082821c905092915050565b60006200083c600019846008026200081c565b1980831691505092915050565b600062000857838362000829565b9150826002028217905092915050565b62000872826200061c565b67ffffffffffffffff8111156200088e576200088d62000225565b5b6200089a825462000656565b620008a7828285620007cc565b600060209050601f831160018114620008df5760008415620008ca578287015190505b620008d6858262000849565b86555062000946565b601f198416620008ef866200068b565b60005b828110156200091957848901518255600182019150602085019450602081019050620008f2565b8683101562000939578489015162000935601f89168262000829565b8355505b6001600288020188555050505b505050505050565b600081905092915050565b600062000966826200061c565b6200097281856200094e565b935062000984818560208601620002df565b80840191505092915050565b60006200099e828562000959565b9150620009ac828462000959565b91508190509392505050565b610dd280620009c86000396000f3fe6080604052600436106100595760003560e01c80633fad9ae0146100db5780634eee59b31461010657806370740ac9146101225780638577db431461012c578063c793fcf914610157578063dfbf53ae14610182576100d6565b366100d657662386f26fc1000034116100a7576040517f08c379a000000000000000000000000000000000000000000000000000000000815260040161009e906107c2565b60405180910390fd5b347f44863bc9b335caf97ca3a3ab6fb67776965a88292ed53b0679f8eae4a67b630c60405160405180910390a2005b600080fd5b3480156100e757600080fd5b506100f06101ad565b6040516100fd9190610861565b60405180910390f35b610120600480360381019061011b91906108f2565b61023b565b005b61012a610485565b005b34801561013857600080fd5b50610141610605565b60405161014e9190610958565b60405180910390f35b34801561016357600080fd5b5061016c61060d565b6040516101799190610a7f565b60405180910390f35b34801561018e57600080fd5b506101976106e6565b6040516101a49190610ae2565b60405180910390f35b600080546101ba90610b2c565b80601f01602080910402602001604051908101604052809291908181526020018280546101e690610b2c565b80156102335780601f1061020857610100808354040283529160200191610233565b820191906000526020600020905b81548152906001019060200180831161021657829003601f168201915b505050505081565b600073ffffffffffffffffffffffffffffffffffffffff16600460009054906101000a900473ffffffffffffffffffffffffffffffffffffffff1673ffffffffffffffffffffffffffffffffffffffff16146102cc576040517f08c379a00000000000000000000000000000000000000000000000000000000081526004016102c390610bcf565b60405180910390fd5b6001546103a783838080601f016020809104026020016040519081016040528093929190818152602001838380828437600081840152601f19601f820116905080830192505050505050506003805461032490610b2c565b80601f016020809104026020016040519081016040528092919081815260200182805461035090610b2c565b801561039d5780601f106103725761010080835404028352916020019161039d565b820191906000526020600020905b81548152906001019060200180831161038057829003601f168201915b505050505061070c565b0361043d576103b4610605565b3373ffffffffffffffffffffffffffffffffffffffff167f1b52b6bd5e988e46aa2a39e8d112f1af5047d215d44356910e9f9c79671031a460405160405180910390a333600460006101000a81548173ffffffffffffffffffffffffffffffffffffffff021916908373ffffffffffffffffffffffffffffffffffffffff160217905550610481565b3373ffffffffffffffffffffffffffffffffffffffff167fd5460701e04f1a04b5a6fc14ece043c4fde3a641922aed43b4aa6aa97066e76a60405160405180910390a25b5050565b600460009054906101000a900473ffffffffffffffffffffffffffffffffffffffff1673ffffffffffffffffffffffffffffffffffffffff163373ffffffffffffffffffffffffffffffffffffffff1614610515576040517f08c379a000000000000000000000000000000000000000000000000000000000815260040161050c90610c3b565b60405180910390fd5b600061051f610605565b1161055f576040517f08c379a000000000000000000000000000000000000000000000000000000000815260040161055690610ca7565b60405180910390fd5b6000600460009054906101000a900473ffffffffffffffffffffffffffffffffffffffff1673ffffffffffffffffffffffffffffffffffffffff166105a2610605565b6040516105ae90610cf8565b60006040518083038185875af1925050503d80600081146105eb576040519150601f19603f3d011682016040523d82523d6000602084013e6105f0565b606091505b505090508061060257610601610d0d565b5b50565b600047905090565b60606002805480602002602001604051908101604052809291908181526020016000905b828210156106dd57838290600052602060002001805461065090610b2c565b80601f016020809104026020016040519081016040528092919081815260200182805461067c90610b2c565b80156106c95780601f1061069e576101008083540402835291602001916106c9565b820191906000526020600020905b8154815290600101906020018083116106ac57829003601f168201915b505050505081526020019060010190610631565b50505050905090565b600460009054906101000a900473ffffffffffffffffffffffffffffffffffffffff1681565b60008183604051602001610721929190610d78565b60405160208183030381529060405280519060200120905092915050565b600082825260208201905092915050565b7f546865204574682073656e74206d757374206265206174206c6561737420302e60008201527f3031000000000000000000000000000000000000000000000000000000000000602082015250565b60006107ac60228361073f565b91506107b782610750565b604082019050919050565b600060208201905081810360008301526107db8161079f565b9050919050565b600081519050919050565b60005b8381101561080b5780820151818401526020810190506107f0565b60008484015250505050565b6000601f19601f8301169050919050565b6000610833826107e2565b61083d818561073f565b935061084d8185602086016107ed565b61085681610817565b840191505092915050565b6000602082019050818103600083015261087b8184610828565b905092915050565b600080fd5b600080fd5b600080fd5b600080fd5b600080fd5b60008083601f8401126108b2576108b161088d565b5b8235905067ffffffffffffffff8111156108cf576108ce610892565b5b6020830191508360018202830111156108eb576108ea610897565b5b9250929050565b6000806020838503121561090957610908610883565b5b600083013567ffffffffffffffff81111561092757610926610888565b5b6109338582860161089c565b92509250509250929050565b6000819050919050565b6109528161093f565b82525050565b600060208201905061096d6000830184610949565b92915050565b600081519050919050565b600082825260208201905092915050565b6000819050602082019050919050565b600082825260208201905092915050565b60006109bb826107e2565b6109c5818561099f565b93506109d58185602086016107ed565b6109de81610817565b840191505092915050565b60006109f583836109b0565b905092915050565b6000602082019050919050565b6000610a1582610973565b610a1f818561097e565b935083602082028501610a318561098f565b8060005b85811015610a6d5784840389528151610a4e85826109e9565b9450610a59836109fd565b925060208a01995050600181019050610a35565b50829750879550505050505092915050565b60006020820190508181036000830152610a998184610a0a565b905092915050565b600073ffffffffffffffffffffffffffffffffffffffff82169050919050565b6000610acc82610aa1565b9050919050565b610adc81610ac1565b82525050565b6000602082019050610af76000830184610ad3565b92915050565b7f4e487b7100000000000000000000000000000000000000000000000000000000600052602260045260246000fd5b60006002820490506001821680610b4457607f821691505b602082108103610b5757610b56610afd565b5b50919050565b7f546865207175697a2068617320616c7265616479206265656e2067756573736560008201527f6421000000000000000000000000000000000000000000000000000000000000602082015250565b6000610bb960228361073f565b9150610bc482610b5d565b604082019050919050565b60006020820190508181036000830152610be881610bac565b9050919050565b7f596f7520617265206e6f74207468652077696e6e657200000000000000000000600082015250565b6000610c2560168361073f565b9150610c3082610bef565b602082019050919050565b60006020820190508181036000830152610c5481610c18565b9050919050565b7f546865207175697a2072657761726420706f6f6c20697320656d707479000000600082015250565b6000610c91601d8361073f565b9150610c9c82610c5b565b602082019050919050565b60006020820190508181036000830152610cc081610c84565b9050919050565b600081905092915050565b50565b6000610ce2600083610cc7565b9150610ced82610cd2565b600082019050919050565b6000610d0382610cd5565b9150819050919050565b7f4e487b7100000000000000000000000000000000000000000000000000000000600052600160045260246000fd5b600081905092915050565b6000610d52826107e2565b610d5c8185610d3c565b9350610d6c8185602086016107ed565b80840191505092915050565b6000610d848285610d47565b9150610d908284610d47565b9150819050939250505056fea264697066735822122012316fd9fbe2c68edab9a26a8b4e4c93a5629102d2e5cf554ec2c6ba1779091e64736f6c63430008180033a2646970667358221220ee49bffe1b52558eb886678add1f35d0f18fc7e2b27b98eca80e7117d8a2212464736f6c63430008180033",
  "linkReferences": {},
  "deployedLinkReferences": {}
}