{
  "_format": "hh-sol-artifact-1",
  "contractName": "Quiz",
  "sourceName": "contracts/Quiz.sol",
  "abi": [
    {
      "inputs": [
        {
          "internalType": "string",
          "name": "_question",
          "type": "string"
        },
        {
          "internalType": "string",
          "name": "_answer",
          "type": "string"
        },
        {
          "internalType": "string[]",
          "name": "_answers",
          "type": "string[]"
        },
        {
          "internalType": "string",
          "name": "_salt",
          "type": "string"
        }
      ],
      "stateMutability": "payable",
      "type": "constructor"
    },
    {
      "anonymous": false,
      "inputs": [
        {
          "indexed": true,
          "internalType": "uint256",
          "name": "",
          "type": "uint256"
        }
      ],
      "name": "EthDeposited",
      "type": "event"
    },
    {
      "anonymous": false,
      "inputs": [
        {
          "indexed": true,
          "internalType": "address",
          "name": "",
          "type": "address"
        }
      ],
      "name": "QuizNotQuessed",
      "type": "event"
    },
    {
      "anonymous": false,
      "inputs": [
        {
          "indexed": true,
          "internalType": "address",
          "name": "",
          "type": "address"
        },
        {
          "indexed": true,
          "internalType": "uint256",
          "name": "",
          "type": "uint256"
        }
      ],
      "name": "QuizQuessed",
      "type": "event"
    },
    {
      "inputs": [],
      "name": "claimPrize",
      "outputs": [],
      "stateMutability": "payable",
      "type": "function"
    },
    {
      "inputs": [],
      "name": "getAnswers",
      "outputs": [
        {
          "internalType": "string[]",
          "name": "",
          "type": "string[]"
        }
      ],
      "stateMutability": "view",
      "type": "function"
    },
    {
      "inputs": [],
      "name": "getCurrentQuizBalance",
      "outputs": [
        {
          "internalType": "uint256",
          "name": "",
          "type": "uint256"
        }
      ],
      "stateMutability": "view",
      "type": "function"
    },
    {
      "inputs": [
        {
          "internalType": "string",
          "name": "_guess",
          "type": "string"
        }
      ],
      "name": "guess",
      "outputs": [],
      "stateMutability": "payable",
      "type": "function"
    },
    {
      "inputs": [],
      "name": "question",
      "outputs": [
        {
          "internalType": "string",
          "name": "",
          "type": "string"
        }
      ],
      "stateMutability": "view",
      "type": "function"
    },
    {
      "inputs": [],
      "name": "winner",
      "outputs": [
        {
          "internalType": "address",
          "name": "",
          "type": "address"
        }
      ],
      "stateMutability": "view",
      "type": "function"
    },
    {
      "stateMutability": "payable",
      "type": "receive"
    }
  ],
  "bytecode": "0x608060405260405162001c8938038062001c89833981810160405281019062000029919062000613565b620000456742ff72a0a856b73a60c01b6200020860201b60201c565b620000616718f048f861020bee60c01b6200020860201b60201c565b6200007d67310973098b5711fd60c01b6200020860201b60201c565b6200009967b28e195d36e24d4760c01b6200020860201b60201c565b662386f26fc100003411620000e5576040517f08c379a0000000000000000000000000000000000000000000000000000000008152600401620000dc9062000788565b60405180910390fd5b620001016765669a7aa177001260c01b6200020860201b60201c565b6200011d67fe12081f42f49d7960c01b6200020860201b60201c565b6200013967868033c00d07df9160c01b6200020860201b60201c565b6200015567e5140087c03063b860c01b6200020860201b60201c565b8360009081620001669190620009f5565b506200018367649f3fb696a5529a60c01b6200020860201b60201c565b6200019583826200020b60201b60201c565b600181905550620001b767bf4fa2c79c09be3a60c01b6200020860201b60201c565b8160029080519060200190620001cf92919062000297565b50620001ec6723eb9fac095ee33060c01b6200020860201b60201c565b8060039081620001fd9190620009f5565b505050505062000b46565b50565b60006200022967acfa343b2da5062960c01b6200029460201b60201c565b6200024567633c998dd09b25a660c01b6200029460201b60201c565b620002616726afe8ce80e947e060c01b6200029460201b60201c565b81836040516020016200027692919062000b1e565b60405160208183030381529060405280519060200120905092915050565b50565b828054828255906000526020600020908101928215620002e4579160200282015b82811115620002e3578251829081620002d29190620009f5565b5091602001919060010190620002b8565b5b509050620002f39190620002f7565b5090565b5b808211156200031b57600081816200031191906200031f565b50600101620002f8565b5090565b5080546200032d90620007e4565b6000825580601f1062000341575062000362565b601f01602090049060005260206000209081019062000361919062000365565b5b50565b5b808211156200038057600081600090555060010162000366565b5090565b6000604051905090565b600080fd5b600080fd5b600080fd5b600080fd5b6000601f19601f8301169050919050565b7f4e487b7100000000000000000000000000000000000000000000000000000000600052604160045260246000fd5b620003ed82620003a2565b810181811067ffffffffffffffff821117156200040f576200040e620003b3565b5b80604052505050565b60006200042462000384565b9050620004328282620003e2565b919050565b600067ffffffffffffffff821115620004555762000454620003b3565b5b6200046082620003a2565b9050602081019050919050565b60005b838110156200048d57808201518184015260208101905062000470565b60008484015250505050565b6000620004b0620004aa8462000437565b62000418565b905082815260208101848484011115620004cf57620004ce6200039d565b5b620004dc8482856200046d565b509392505050565b600082601f830112620004fc57620004fb62000398565b5b81516200050e84826020860162000499565b91505092915050565b600067ffffffffffffffff821115620005355762000534620003b3565b5b602082029050602081019050919050565b600080fd5b6000620005626200055c8462000517565b62000418565b9050808382526020820190506020840283018581111562000588576200058762000546565b5b835b81811015620005d657805167ffffffffffffffff811115620005b157620005b062000398565b5b808601620005c08982620004e4565b855260208501945050506020810190506200058a565b5050509392505050565b600082601f830112620005f857620005f762000398565b5b81516200060a8482602086016200054b565b91505092915050565b6000806000806080858703121562000630576200062f6200038e565b5b600085015167ffffffffffffffff81111562000651576200065062000393565b5b6200065f87828801620004e4565b945050602085015167ffffffffffffffff81111562000683576200068262000393565b5b6200069187828801620004e4565b935050604085015167ffffffffffffffff811115620006b557620006b462000393565b5b620006c387828801620005e0565b925050606085015167ffffffffffffffff811115620006e757620006e662000393565b5b620006f587828801620004e4565b91505092959194509250565b600082825260208201905092915050565b7f546865204574682073656e74206d757374206265206174206c6561737420302e60008201527f3031000000000000000000000000000000000000000000000000000000000000602082015250565b60006200077060228362000701565b91506200077d8262000712565b604082019050919050565b60006020820190508181036000830152620007a38162000761565b9050919050565b600081519050919050565b7f4e487b7100000000000000000000000000000000000000000000000000000000600052602260045260246000fd5b60006002820490506001821680620007fd57607f821691505b602082108103620008135762000812620007b5565b5b50919050565b60008190508160005260206000209050919050565b60006020601f8301049050919050565b600082821b905092915050565b6000600883026200087d7fffffffffffffffffffffffffffffffffffffffffffffffffffffffffffffffff826200083e565b6200088986836200083e565b95508019841693508086168417925050509392505050565b6000819050919050565b6000819050919050565b6000620008d6620008d0620008ca84620008a1565b620008ab565b620008a1565b9050919050565b6000819050919050565b620008f283620008b5565b6200090a6200090182620008dd565b8484546200084b565b825550505050565b600090565b6200092162000912565b6200092e818484620008e7565b505050565b5b8181101562000956576200094a60008262000917565b60018101905062000934565b5050565b601f821115620009a5576200096f8162000819565b6200097a846200082e565b810160208510156200098a578190505b620009a262000999856200082e565b83018262000933565b50505b505050565b600082821c905092915050565b6000620009ca60001984600802620009aa565b1980831691505092915050565b6000620009e58383620009b7565b9150826002028217905092915050565b62000a0082620007aa565b67ffffffffffffffff81111562000a1c5762000a1b620003b3565b5b62000a288254620007e4565b62000a358282856200095a565b600060209050601f83116001811462000a6d576000841562000a58578287015190505b62000a648582620009d7565b86555062000ad4565b601f19841662000a7d8662000819565b60005b8281101562000aa75784890151825560018201915060208501945060208101905062000a80565b8683101562000ac7578489015162000ac3601f891682620009b7565b8355505b6001600288020188555050505b505050505050565b600081905092915050565b600062000af482620007aa565b62000b00818562000adc565b935062000b128185602086016200046d565b80840191505092915050565b600062000b2c828562000ae7565b915062000b3a828462000ae7565b91508190509392505050565b6111338062000b566000396000f3fe6080604052600436106100595760003560e01c80633fad9ae0146101675780634eee59b31461019257806370740ac9146101ae5780638577db43146101b8578063c793fcf9146101e3578063dfbf53ae1461020e57610162565b36610162576100726742ff72a0a856b73a60c01b610239565b6100866718f048f861020bee60c01b610239565b61009a67310973098b5711fd60c01b610239565b6100ae67b28e195d36e24d4760c01b610239565b662386f26fc1000034116100f7576040517f08c379a00000000000000000000000000000000000000000000000000000000081526004016100ee90610b23565b60405180910390fd5b61010b6765669a7aa177001260c01b610239565b61011f67fe12081f42f49d7960c01b610239565b6101336783c629bf531ff7a660c01b610239565b347f44863bc9b335caf97ca3a3ab6fb67776965a88292ed53b0679f8eae4a67b630c60405160405180910390a2005b600080fd5b34801561017357600080fd5b5061017c61023c565b6040516101899190610bc2565b60405180910390f35b6101ac60048036038101906101a79190610c53565b6102ca565b005b6101b661062b565b005b3480156101c457600080fd5b506101cd6108af565b6040516101da9190610cb9565b60405180910390f35b3480156101ef57600080fd5b506101f86108f3565b6040516102059190610de0565b60405180910390f35b34801561021a57600080fd5b50610223610a08565b6040516102309190610e43565b60405180910390f35b50565b6000805461024990610e8d565b80601f016020809104026020016040519081016040528092919081815260200182805461027590610e8d565b80156102c25780601f10610297576101008083540402835291602001916102c2565b820191906000526020600020905b8154815290600101906020018083116102a557829003601f168201915b505050505081565b6102dd66410083880a824660c01b610239565b6102f167198917f939b092a460c01b610239565b61030567681a970ee2dd7fb960c01b610239565b61031967682f4fcd90cf6a1060c01b610239565b600073ffffffffffffffffffffffffffffffffffffffff16600460009054906101000a900473ffffffffffffffffffffffffffffffffffffffff1673ffffffffffffffffffffffffffffffffffffffff16146103aa576040517f08c379a00000000000000000000000000000000000000000000000000000000081526004016103a190610f30565b60405180910390fd5b6103be672ac42d99fa6cb6df60c01b610239565b6103d267a8899ebe819e100160c01b610239565b6103e6677332cc3856b4779660c01b610239565b6001546104c183838080601f016020809104026020016040519081016040528093929190818152602001838380828437600081840152601f19601f820116905080830192505050505050506003805461043e90610e8d565b80601f016020809104026020016040519081016040528092919081815260200182805461046a90610e8d565b80156104b75780601f1061048c576101008083540402835291602001916104b7565b820191906000526020600020905b81548152906001019060200180831161049a57829003601f168201915b5050505050610a2e565b036105a7576104da671e24014642957a2260c01b610239565b6104ee67686877f29953506060c01b610239565b61050267ce505c9acd0dec3760c01b610239565b61050a6108af565b3373ffffffffffffffffffffffffffffffffffffffff167f1b52b6bd5e988e46aa2a39e8d112f1af5047d215d44356910e9f9c79671031a460405160405180910390a361056167e712b5f9808ee1e760c01b610239565b33600460006101000a81548173ffffffffffffffffffffffffffffffffffffffff021916908373ffffffffffffffffffffffffffffffffffffffff160217905550610627565b6105bb6750dda191d390ba8b60c01b610239565b6105cf6756aefbad63408f8a60c01b610239565b6105e367a1475d4b3cd2a2e060c01b610239565b3373ffffffffffffffffffffffffffffffffffffffff167fd5460701e04f1a04b5a6fc14ece043c4fde3a641922aed43b4aa6aa97066e76a60405160405180910390a25b5050565b61063f67ffccd04bc07125b060c01b610239565b6106536789b902f931a7454860c01b610239565b61066767b98c5642c599e87460c01b610239565b61067b679bb521a5314d045760c01b610239565b600460009054906101000a900473ffffffffffffffffffffffffffffffffffffffff1673ffffffffffffffffffffffffffffffffffffffff163373ffffffffffffffffffffffffffffffffffffffff161461070b576040517f08c379a000000000000000000000000000000000000000000000000000000000815260040161070290610f9c565b60405180910390fd5b61071f67975efe51ac0f0b5d60c01b610239565b610733679e6287a177da044b60c01b610239565b61074767215dca9ae6c4bfc060c01b610239565b61075b678896f8f5787f0a6f60c01b610239565b60006107656108af565b116107a5576040517f08c379a000000000000000000000000000000000000000000000000000000000815260040161079c90611008565b60405180910390fd5b6107b967ec6d1253b4035b0760c01b610239565b6107cd672d232ba45f8b713e60c01b610239565b6107e16714a0bcdb9792a44660c01b610239565b6000600460009054906101000a900473ffffffffffffffffffffffffffffffffffffffff1673ffffffffffffffffffffffffffffffffffffffff166108246108af565b60405161083090611059565b60006040518083038185875af1925050503d806000811461086d576040519150601f19603f3d011682016040523d82523d6000602084013e610872565b606091505b5050905061088a6736f6feb0fa6cae2860c01b610239565b61089e677f93f4c6073cf60c60c01b610239565b806108ac576108ab61106e565b5b50565b60006108c56798cea9dac117e06c60c01b610239565b6108d9676c5f7c9cfdbca7b360c01b610239565b6108ed67f585da9f0e70563160c01b610239565b47905090565b6060610909673049f51f372ab0cd60c01b610239565b61091d6761dfc3fcfdf4761060c01b610239565b61093167389e37c1dfd35e9060c01b610239565b6002805480602002602001604051908101604052809291908181526020016000905b828210156109ff57838290600052602060002001805461097290610e8d565b80601f016020809104026020016040519081016040528092919081815260200182805461099e90610e8d565b80156109eb5780601f106109c0576101008083540402835291602001916109eb565b820191906000526020600020905b8154815290600101906020018083116109ce57829003601f168201915b505050505081526020019060010190610953565b50505050905090565b600460009054906101000a900473ffffffffffffffffffffffffffffffffffffffff1681565b6000610a4467acfa343b2da5062960c01b610a9d565b610a5867633c998dd09b25a660c01b610a9d565b610a6c6726afe8ce80e947e060c01b610a9d565b8183604051602001610a7f9291906110d9565b60405160208183030381529060405280519060200120905092915050565b50565b600082825260208201905092915050565b7f546865204574682073656e74206d757374206265206174206c6561737420302e60008201527f3031000000000000000000000000000000000000000000000000000000000000602082015250565b6000610b0d602283610aa0565b9150610b1882610ab1565b604082019050919050565b60006020820190508181036000830152610b3c81610b00565b9050919050565b600081519050919050565b60005b83811015610b6c578082015181840152602081019050610b51565b60008484015250505050565b6000601f19601f8301169050919050565b6000610b9482610b43565b610b9e8185610aa0565b9350610bae818560208601610b4e565b610bb781610b78565b840191505092915050565b60006020820190508181036000830152610bdc8184610b89565b905092915050565b600080fd5b600080fd5b600080fd5b600080fd5b600080fd5b60008083601f840112610c1357610c12610bee565b5b8235905067ffffffffffffffff811115610c3057610c2f610bf3565b5b602083019150836001820283011115610c4c57610c4b610bf8565b5b9250929050565b60008060208385031215610c6a57610c69610be4565b5b600083013567ffffffffffffffff811115610c8857610c87610be9565b5b610c9485828601610bfd565b92509250509250929050565b6000819050919050565b610cb381610ca0565b82525050565b6000602082019050610cce6000830184610caa565b92915050565b600081519050919050565b600082825260208201905092915050565b6000819050602082019050919050565b600082825260208201905092915050565b6000610d1c82610b43565b610d268185610d00565b9350610d36818560208601610b4e565b610d3f81610b78565b840191505092915050565b6000610d568383610d11565b905092915050565b6000602082019050919050565b6000610d7682610cd4565b610d808185610cdf565b935083602082028501610d9285610cf0565b8060005b85811015610dce5784840389528151610daf8582610d4a565b9450610dba83610d5e565b925060208a01995050600181019050610d96565b50829750879550505050505092915050565b60006020820190508181036000830152610dfa8184610d6b565b905092915050565b600073ffffffffffffffffffffffffffffffffffffffff82169050919050565b6000610e2d82610e02565b9050919050565b610e3d81610e22565b82525050565b6000602082019050610e586000830184610e34565b92915050565b7f4e487b7100000000000000000000000000000000000000000000000000000000600052602260045260246000fd5b60006002820490506001821680610ea557607f821691505b602082108103610eb857610eb7610e5e565b5b50919050565b7f546865207175697a2068617320616c7265616479206265656e2067756573736560008201527f6421000000000000000000000000000000000000000000000000000000000000602082015250565b6000610f1a602283610aa0565b9150610f2582610ebe565b604082019050919050565b60006020820190508181036000830152610f4981610f0d565b9050919050565b7f596f7520617265206e6f74207468652077696e6e657200000000000000000000600082015250565b6000610f86601683610aa0565b9150610f9182610f50565b602082019050919050565b60006020820190508181036000830152610fb581610f79565b9050919050565b7f546865207175697a2072657761726420706f6f6c20697320656d707479000000600082015250565b6000610ff2601d83610aa0565b9150610ffd82610fbc565b602082019050919050565b6000602082019050818103600083015261102181610fe5565b9050919050565b600081905092915050565b50565b6000611043600083611028565b915061104e82611033565b600082019050919050565b600061106482611036565b9150819050919050565b7f4e487b7100000000000000000000000000000000000000000000000000000000600052600160045260246000fd5b600081905092915050565b60006110b382610b43565b6110bd818561109d565b93506110cd818560208601610b4e565b80840191505092915050565b60006110e582856110a8565b91506110f182846110a8565b9150819050939250505056fea2646970667358221220cde6d086102e3d61e35562dfe1de1ebf7e97caa46dc9413b33633ead3f77998064736f6c63430008180033",
  "linkReferences": {},
  "deployedLinkReferences": {}
}